{
  "contractName": "XS2Factory",
  "abi": [
    {
      "anonymous": false,
      "inputs": [
        {
          "indexed": false,
          "internalType": "address",
          "name": "newContractAddress",
          "type": "address"
        }
      ],
      "name": "ContractCreated",
      "type": "event"
    },
    {
      "inputs": [],
      "name": "deployer",
      "outputs": [
        {
          "internalType": "address",
          "name": "",
          "type": "address"
        }
      ],
      "stateMutability": "view",
      "type": "function"
    },
    {
      "inputs": [],
      "name": "implementation",
      "outputs": [
        {
          "internalType": "address",
          "name": "",
          "type": "address"
        }
      ],
      "stateMutability": "view",
      "type": "function"
    },
    {
      "inputs": [],
      "name": "name",
      "outputs": [
        {
          "internalType": "string",
          "name": "",
          "type": "string"
        }
      ],
      "stateMutability": "view",
      "type": "function"
    },
    {
      "inputs": [],
      "name": "totalContracts",
      "outputs": [
        {
          "internalType": "uint32",
          "name": "",
          "type": "uint32"
        }
      ],
      "stateMutability": "view",
      "type": "function"
    },
    {
      "inputs": [],
      "name": "url",
      "outputs": [
        {
          "internalType": "string",
          "name": "",
          "type": "string"
        }
      ],
      "stateMutability": "view",
      "type": "function"
    },
    {
      "inputs": [
        {
          "internalType": "address",
          "name": "implementation_",
          "type": "address"
        },
        {
          "internalType": "string",
          "name": "name_",
          "type": "string"
        },
        {
          "internalType": "string",
          "name": "url_",
          "type": "string"
        }
      ],
      "name": "initialize",
      "outputs": [],
      "stateMutability": "nonpayable",
      "type": "function"
    },
    {
      "inputs": [
        {
          "internalType": "bytes",
          "name": "data",
          "type": "bytes"
        }
      ],
      "name": "deploy",
      "outputs": [
        {
          "internalType": "address",
          "name": "",
          "type": "address"
        }
      ],
      "stateMutability": "nonpayable",
      "type": "function"
    }
  ],
  "bytecode": "0x608060405234801561001057600080fd5b50610a49806100206000396000f3fe608060405234801561001057600080fd5b506004361061007c5760003560e01c80635c60da1b1161005b5780635c60da1b1461026c57806390657147146102a0578063a09037a914610412578063d5f39488146104365761007c565b80627743601461008157806306fdde03146101665780635600f04f146101e9575b600080fd5b61013a6004803603602081101561009757600080fd5b81019080803590602001906401000000008111156100b457600080fd5b8201836020820111156100c657600080fd5b803590602001918460018302840111640100000000831117156100e857600080fd5b91908080601f016020809104026020016040519081016040528093929190818152602001838380828437600081840152601f19601f82011690508083019250505050505050919291929050505061046a565b604051808273ffffffffffffffffffffffffffffffffffffffff16815260200191505060405180910390f35b61016e610767565b6040518080602001828103825283818151815260200191508051906020019080838360005b838110156101ae578082015181840152602081019050610193565b50505050905090810190601f1680156101db5780820380516001836020036101000a031916815260200191505b509250505060405180910390f35b6101f1610805565b6040518080602001828103825283818151815260200191508051906020019080838360005b83811015610231578082015181840152602081019050610216565b50505050905090810190601f16801561025e5780820380516001836020036101000a031916815260200191505b509250505060405180910390f35b6102746108a3565b604051808273ffffffffffffffffffffffffffffffffffffffff16815260200191505060405180910390f35b610410600480360360608110156102b657600080fd5b81019080803573ffffffffffffffffffffffffffffffffffffffff169060200190929190803590602001906401000000008111156102f357600080fd5b82018360208201111561030557600080fd5b8035906020019184600183028401116401000000008311171561032757600080fd5b91908080601f016020809104026020016040519081016040528093929190818152602001838380828437600081840152601f19601f8201169050808301925050505050505091929192908035906020019064010000000081111561038a57600080fd5b82018360208201111561039c57600080fd5b803590602001918460018302840111640100000000831117156103be57600080fd5b91908080601f016020809104026020016040519081016040528093929190818152602001838380828437600081840152601f19601f8201169050808301925050505050505091929192905050506108c7565b005b61041a61093a565b604051808263ffffffff16815260200191505060405180910390f35b61043e610950565b604051808273ffffffffffffffffffffffffffffffffffffffff16815260200191505060405180910390f35b60008060008054906101000a900473ffffffffffffffffffffffffffffffffffffffff1660601b905060006040517f3d602d80600a3d3981f3363d3d373d3d3d363d7300000000000000000000000081528260148201527f5af43d82803e903d91602b57fd5bf3000000000000000000000000000000000060288201526037816000f09150508060046000600360149054906101000a900463ffffffff1663ffffffff1663ffffffff16815260200190815260200160002060006101000a81548173ffffffffffffffffffffffffffffffffffffffff021916908373ffffffffffffffffffffffffffffffffffffffff1602179055506003601481819054906101000a900463ffffffff168092919060010191906101000a81548163ffffffff021916908363ffffffff1602179055505060008451111561071057600060608273ffffffffffffffffffffffffffffffffffffffff16866040518082805190602001908083835b602083106105f457805182526020820191506020810190506020830392506105d1565b6001836020036101000a0380198251168184511680821785525050505050509050019150506000604051808303816000865af19150503d8060008114610656576040519150601f19603f3d011682016040523d82523d6000602084013e61065b565b606091505b509150915081801561069b575060008151148061069a575080806020019051602081101561068857600080fd5b81019080805190602001909291905050505b5b61070d576040517f08c379a00000000000000000000000000000000000000000000000000000000081526004018080602001828103825260178152602001807f5853323a20496e697469616c697a65206661696c65642e00000000000000000081525060200191505060405180910390fd5b50505b7fcf78cf0d6f3d8371e1075c69c492ab4ec5d8cf23a1a239b6a51a1d00be7ca31281604051808273ffffffffffffffffffffffffffffffffffffffff16815260200191505060405180910390a18092505050919050565b60018054600181600116156101000203166002900480601f0160208091040260200160405190810160405280929190818152602001828054600181600116156101000203166002900480156107fd5780601f106107d2576101008083540402835291602001916107fd565b820191906000526020600020905b8154815290600101906020018083116107e057829003601f168201915b505050505081565b60028054600181600116156101000203166002900480601f01602080910402602001604051908101604052809291908181526020018280546001816001161561010002031660029004801561089b5780601f106108705761010080835404028352916020019161089b565b820191906000526020600020905b81548152906001019060200180831161087e57829003601f168201915b505050505081565b60008054906101000a900473ffffffffffffffffffffffffffffffffffffffff1681565b826000806101000a81548173ffffffffffffffffffffffffffffffffffffffff021916908373ffffffffffffffffffffffffffffffffffffffff160217905550816001908051906020019061091d929190610976565b508060029080519060200190610934929190610976565b50505050565b600360149054906101000a900463ffffffff1681565b600360009054906101000a900473ffffffffffffffffffffffffffffffffffffffff1681565b828054600181600116156101000203166002900490600052602060002090601f016020900481019282601f106109b757805160ff19168380011785556109e5565b828001600101855582156109e5579182015b828111156109e45782518255916020019190600101906109c9565b5b5090506109f291906109f6565b5090565b5b80821115610a0f5760008160009055506001016109f7565b509056fea2646970667358221220ba4f9da427f6e185eea3f6733e37807b868df3f450f742702a2502709e1b330764736f6c63430007000033",
  "immutableReferences": {},
  "source": "// SPDX-License-Identifier: MIT\r\npragma solidity ^0.7.0;\r\n\r\ncontract XS2Factory {\r\n    address public implementation;\r\n    string public name;\r\n    string public url;\r\n\r\n    address public deployer;\r\n\r\n    uint32 public totalContracts;\r\n    mapping(uint32 => address) contracts;\r\n\r\n    event ContractCreated(address newContractAddress);\r\n\r\n    function initialize(\r\n        address implementation_,\r\n        string memory name_,\r\n        string memory url_\r\n    ) public {\r\n        implementation = implementation_;\r\n        name = name_;\r\n        url = url_;\r\n    }\r\n\r\n    function deploy(bytes memory data) public returns (address) {\r\n        bytes20 targetBytes = bytes20(implementation);\r\n        address clone_address;\r\n        // solium-disable-next-line security/no-inline-assembly\r\n        assembly {\r\n            let clone := mload(0x40)\r\n            mstore(\r\n                clone,\r\n                0x3d602d80600a3d3981f3363d3d373d3d3d363d73000000000000000000000000\r\n            )\r\n            mstore(add(clone, 0x14), targetBytes)\r\n            mstore(\r\n                add(clone, 0x28),\r\n                0x5af43d82803e903d91602b57fd5bf30000000000000000000000000000000000\r\n            )\r\n            clone_address := create(0, clone, 0x37)\r\n        }\r\n\r\n        contracts[totalContracts] = clone_address;\r\n        totalContracts++;\r\n\r\n        if (data.length > 0) {\r\n            // solium-disable-next-line security/no-low-level-calls\r\n            (bool success, bytes memory result) = clone_address.call(data);\r\n            require(\r\n                success && (result.length == 0 || abi.decode(result, (bool))),\r\n                \"XS2: Initialize failed.\"\r\n            );\r\n        }\r\n\r\n        emit ContractCreated(clone_address);\r\n\r\n        return clone_address;\r\n    }\r\n}\r\n",
  "sourcePath": "C:/Users/Bart/Dropbox/Code/XS2DeFi/Code/contracts/XS2Factory.sol",
  "compiler": {
    "name": "solc",
    "version": "0.7.0+commit.9e61f92b.Emscripten.clang"
  },
  "schemaVersion": "3.2.3",
  "updatedAt": "2020-08-24T16:15:42.755Z",
  "devdoc": {
    "kind": "dev",
    "methods": {},
    "version": 1
  },
  "userdoc": {
    "kind": "user",
    "methods": {},
    "version": 1
  }
}