{
  "contractName": "XS2Option",
  "abi": [
    {
      "anonymous": false,
      "inputs": [
        {
          "indexed": true,
          "internalType": "address",
          "name": "owner",
          "type": "address"
        },
        {
          "indexed": true,
          "internalType": "address",
          "name": "spender",
          "type": "address"
        },
        {
          "indexed": false,
          "internalType": "uint256",
          "name": "value",
          "type": "uint256"
        }
      ],
      "name": "Approval",
      "type": "event"
    },
    {
      "anonymous": false,
      "inputs": [
        {
          "indexed": true,
          "internalType": "address",
          "name": "from",
          "type": "address"
        },
        {
          "indexed": false,
          "internalType": "uint256",
          "name": "amount",
          "type": "uint256"
        }
      ],
      "name": "Exercise",
      "type": "event"
    },
    {
      "anonymous": false,
      "inputs": [
        {
          "indexed": true,
          "internalType": "address",
          "name": "to",
          "type": "address"
        },
        {
          "indexed": false,
          "internalType": "uint256",
          "name": "amount",
          "type": "uint256"
        }
      ],
      "name": "Mint",
      "type": "event"
    },
    {
      "anonymous": false,
      "inputs": [
        {
          "indexed": true,
          "internalType": "address",
          "name": "from",
          "type": "address"
        },
        {
          "indexed": true,
          "internalType": "address",
          "name": "to",
          "type": "address"
        },
        {
          "indexed": false,
          "internalType": "uint256",
          "name": "value",
          "type": "uint256"
        }
      ],
      "name": "Transfer",
      "type": "event"
    },
    {
      "anonymous": false,
      "inputs": [
        {
          "indexed": true,
          "internalType": "address",
          "name": "from",
          "type": "address"
        },
        {
          "indexed": false,
          "internalType": "uint256",
          "name": "amount",
          "type": "uint256"
        }
      ],
      "name": "Withdraw",
      "type": "event"
    },
    {
      "inputs": [
        {
          "internalType": "address",
          "name": "",
          "type": "address"
        },
        {
          "internalType": "address",
          "name": "",
          "type": "address"
        }
      ],
      "name": "allowance",
      "outputs": [
        {
          "internalType": "uint256",
          "name": "",
          "type": "uint256"
        }
      ],
      "stateMutability": "view",
      "type": "function"
    },
    {
      "inputs": [],
      "name": "asset",
      "outputs": [
        {
          "internalType": "address",
          "name": "",
          "type": "address"
        }
      ],
      "stateMutability": "view",
      "type": "function"
    },
    {
      "inputs": [
        {
          "internalType": "address",
          "name": "",
          "type": "address"
        }
      ],
      "name": "balanceOf",
      "outputs": [
        {
          "internalType": "uint256",
          "name": "",
          "type": "uint256"
        }
      ],
      "stateMutability": "view",
      "type": "function"
    },
    {
      "inputs": [],
      "name": "currency",
      "outputs": [
        {
          "internalType": "address",
          "name": "",
          "type": "address"
        }
      ],
      "stateMutability": "view",
      "type": "function"
    },
    {
      "inputs": [],
      "name": "decimals",
      "outputs": [
        {
          "internalType": "uint8",
          "name": "",
          "type": "uint8"
        }
      ],
      "stateMutability": "view",
      "type": "function"
    },
    {
      "inputs": [],
      "name": "expiry",
      "outputs": [
        {
          "internalType": "uint256",
          "name": "",
          "type": "uint256"
        }
      ],
      "stateMutability": "view",
      "type": "function"
    },
    {
      "inputs": [
        {
          "internalType": "address",
          "name": "",
          "type": "address"
        }
      ],
      "name": "issued",
      "outputs": [
        {
          "internalType": "uint256",
          "name": "",
          "type": "uint256"
        }
      ],
      "stateMutability": "view",
      "type": "function"
    },
    {
      "inputs": [],
      "name": "name",
      "outputs": [
        {
          "internalType": "string",
          "name": "",
          "type": "string"
        }
      ],
      "stateMutability": "view",
      "type": "function"
    },
    {
      "inputs": [],
      "name": "price",
      "outputs": [
        {
          "internalType": "uint256",
          "name": "",
          "type": "uint256"
        }
      ],
      "stateMutability": "view",
      "type": "function"
    },
    {
      "inputs": [],
      "name": "symbol",
      "outputs": [
        {
          "internalType": "string",
          "name": "",
          "type": "string"
        }
      ],
      "stateMutability": "view",
      "type": "function"
    },
    {
      "inputs": [],
      "name": "totalAsset",
      "outputs": [
        {
          "internalType": "uint256",
          "name": "",
          "type": "uint256"
        }
      ],
      "stateMutability": "view",
      "type": "function"
    },
    {
      "inputs": [],
      "name": "totalCurrency",
      "outputs": [
        {
          "internalType": "uint256",
          "name": "",
          "type": "uint256"
        }
      ],
      "stateMutability": "view",
      "type": "function"
    },
    {
      "inputs": [],
      "name": "totalIssued",
      "outputs": [
        {
          "internalType": "uint256",
          "name": "",
          "type": "uint256"
        }
      ],
      "stateMutability": "view",
      "type": "function"
    },
    {
      "inputs": [],
      "name": "totalSupply",
      "outputs": [
        {
          "internalType": "uint256",
          "name": "",
          "type": "uint256"
        }
      ],
      "stateMutability": "view",
      "type": "function"
    },
    {
      "inputs": [
        {
          "internalType": "string",
          "name": "name_",
          "type": "string"
        },
        {
          "internalType": "string",
          "name": "symbol_",
          "type": "string"
        },
        {
          "internalType": "address",
          "name": "asset_",
          "type": "address"
        },
        {
          "internalType": "address",
          "name": "currency_",
          "type": "address"
        },
        {
          "internalType": "uint256",
          "name": "price_",
          "type": "uint256"
        },
        {
          "internalType": "uint256",
          "name": "expiry_",
          "type": "uint256"
        }
      ],
      "name": "initialize",
      "outputs": [],
      "stateMutability": "nonpayable",
      "type": "function"
    },
    {
      "inputs": [
        {
          "internalType": "address",
          "name": "recipient",
          "type": "address"
        },
        {
          "internalType": "uint256",
          "name": "amount",
          "type": "uint256"
        }
      ],
      "name": "transfer",
      "outputs": [
        {
          "internalType": "bool",
          "name": "",
          "type": "bool"
        }
      ],
      "stateMutability": "nonpayable",
      "type": "function"
    },
    {
      "inputs": [
        {
          "internalType": "address",
          "name": "spender",
          "type": "address"
        },
        {
          "internalType": "uint256",
          "name": "amount",
          "type": "uint256"
        }
      ],
      "name": "approve",
      "outputs": [
        {
          "internalType": "bool",
          "name": "",
          "type": "bool"
        }
      ],
      "stateMutability": "nonpayable",
      "type": "function"
    },
    {
      "inputs": [
        {
          "internalType": "address",
          "name": "sender",
          "type": "address"
        },
        {
          "internalType": "address",
          "name": "recipient",
          "type": "address"
        },
        {
          "internalType": "uint256",
          "name": "amount",
          "type": "uint256"
        }
      ],
      "name": "transferFrom",
      "outputs": [
        {
          "internalType": "bool",
          "name": "",
          "type": "bool"
        }
      ],
      "stateMutability": "nonpayable",
      "type": "function"
    },
    {
      "inputs": [
        {
          "internalType": "uint256",
          "name": "amount",
          "type": "uint256"
        }
      ],
      "name": "mint",
      "outputs": [
        {
          "internalType": "bool",
          "name": "",
          "type": "bool"
        }
      ],
      "stateMutability": "nonpayable",
      "type": "function"
    },
    {
      "inputs": [
        {
          "internalType": "uint256",
          "name": "amount",
          "type": "uint256"
        }
      ],
      "name": "withdraw",
      "outputs": [
        {
          "internalType": "bool",
          "name": "",
          "type": "bool"
        }
      ],
      "stateMutability": "nonpayable",
      "type": "function"
    },
    {
      "inputs": [
        {
          "internalType": "uint256",
          "name": "amount",
          "type": "uint256"
        }
      ],
      "name": "exercise",
      "outputs": [
        {
          "internalType": "bool",
          "name": "",
          "type": "bool"
        }
      ],
      "stateMutability": "nonpayable",
      "type": "function"
    },
    {
      "inputs": [
        {
          "internalType": "address",
          "name": "token_address",
          "type": "address"
        },
        {
          "internalType": "uint256",
          "name": "amount",
          "type": "uint256"
        }
      ],
      "name": "slurp",
      "outputs": [
        {
          "internalType": "bool",
          "name": "",
          "type": "bool"
        }
      ],
      "stateMutability": "nonpayable",
      "type": "function"
    }
  ],
  "bytecode": "0x60806040526012600460006101000a81548160ff021916908360ff16021790555034801561002c57600080fd5b506123078061003c6000396000f3fe608060405234801561001057600080fd5b50600436106101425760003560e01c8063a0712d68116100b8578063e5a6b10f1161007c578063e5a6b10f1461078a578063ee1c73c4146107be578063ef683a7714610822578063f02d7ef014610840578063f5be319314610898578063f9557ccb146108b657610142565b8063a0712d6814610608578063a9059cbb1461064c578063b07f0a41146106b0578063dd62ed3e146106f4578063e184c9be1461076c57610142565b8063313ce5671161010a578063313ce5671461031457806338d52e0f1461033557806370a082311461036957806374e87e1e146103c157806395d89b4114610567578063a035b1fe146105ea57610142565b806306fdde0314610147578063095ea7b3146101ca57806318160ddd1461022e57806323b872dd1461024c5780632e1a7d4d146102d0575b600080fd5b61014f6108d4565b6040518080602001828103825283818151815260200191508051906020019080838360005b8381101561018f578082015181840152602081019050610174565b50505050905090810190601f1680156101bc5780820380516001836020036101000a031916815260200191505b509250505060405180910390f35b610216600480360360408110156101e057600080fd5b81019080803573ffffffffffffffffffffffffffffffffffffffff16906020019092919080359060200190929190505050610972565b60405180821515815260200191505060405180910390f35b610236610a64565b6040518082815260200191505060405180910390f35b6102b86004803603606081101561026257600080fd5b81019080803573ffffffffffffffffffffffffffffffffffffffff169060200190929190803573ffffffffffffffffffffffffffffffffffffffff16906020019092919080359060200190929190505050610a6a565b60405180821515815260200191505060405180910390f35b6102fc600480360360208110156102e657600080fd5b8101908080359060200190929190505050610d80565b60405180821515815260200191505060405180910390f35b61031c610fcf565b604051808260ff16815260200191505060405180910390f35b61033d610fe2565b604051808273ffffffffffffffffffffffffffffffffffffffff16815260200191505060405180910390f35b6103ab6004803603602081101561037f57600080fd5b81019080803573ffffffffffffffffffffffffffffffffffffffff169060200190929190505050611008565b6040518082815260200191505060405180910390f35b610565600480360360c08110156103d757600080fd5b81019080803590602001906401000000008111156103f457600080fd5b82018360208201111561040657600080fd5b8035906020019184600183028401116401000000008311171561042857600080fd5b91908080601f016020809104026020016040519081016040528093929190818152602001838380828437600081840152601f19601f8201169050808301925050505050505091929192908035906020019064010000000081111561048b57600080fd5b82018360208201111561049d57600080fd5b803590602001918460018302840111640100000000831117156104bf57600080fd5b91908080601f016020809104026020016040519081016040528093929190818152602001838380828437600081840152601f19601f820116905080830192505050505050509192919290803573ffffffffffffffffffffffffffffffffffffffff169060200190929190803573ffffffffffffffffffffffffffffffffffffffff1690602001909291908035906020019092919080359060200190929190505050611020565b005b61056f611184565b6040518080602001828103825283818151815260200191508051906020019080838360005b838110156105af578082015181840152602081019050610594565b50505050905090810190601f1680156105dc5780820380516001836020036101000a031916815260200191505b509250505060405180910390f35b6105f2611222565b6040518082815260200191505060405180910390f35b6106346004803603602081101561061e57600080fd5b8101908080359060200190929190505050611228565b60405180821515815260200191505060405180910390f35b6106986004803603604081101561066257600080fd5b81019080803573ffffffffffffffffffffffffffffffffffffffff16906020019092919080359060200190929190505050611561565b60405180821515815260200191505060405180910390f35b6106dc600480360360208110156106c657600080fd5b81019080803590602001909291905050506116fc565b60405180821515815260200191505060405180910390f35b6107566004803603604081101561070a57600080fd5b81019080803573ffffffffffffffffffffffffffffffffffffffff169060200190929190803573ffffffffffffffffffffffffffffffffffffffff1690602001909291905050506119a6565b6040518082815260200191505060405180910390f35b6107746119cb565b6040518082815260200191505060405180910390f35b6107926119d1565b604051808273ffffffffffffffffffffffffffffffffffffffff16815260200191505060405180910390f35b61080a600480360360408110156107d457600080fd5b81019080803573ffffffffffffffffffffffffffffffffffffffff169060200190929190803590602001909291905050506119f7565b60405180821515815260200191505060405180910390f35b61082a611b23565b6040518082815260200191505060405180910390f35b6108826004803603602081101561085657600080fd5b81019080803573ffffffffffffffffffffffffffffffffffffffff169060200190929190505050611b29565b6040518082815260200191505060405180910390f35b6108a0611b41565b6040518082815260200191505060405180910390f35b6108be611b47565b6040518082815260200191505060405180910390f35b60008054600181600116156101000203166002900480601f01602080910402602001604051908101604052809291908181526020018280546001816001161561010002031660029004801561096a5780601f1061093f5761010080835404028352916020019161096a565b820191906000526020600020905b81548152906001019060200180831161094d57829003601f168201915b505050505081565b600081600660003373ffffffffffffffffffffffffffffffffffffffff1673ffffffffffffffffffffffffffffffffffffffff16815260200190815260200160002060008573ffffffffffffffffffffffffffffffffffffffff1673ffffffffffffffffffffffffffffffffffffffff168152602001908152602001600020819055508273ffffffffffffffffffffffffffffffffffffffff163373ffffffffffffffffffffffffffffffffffffffff167f8c5be1e5ebec7d5bd14f71427d1e84f3dd0314c0f7b2291e5b200ac8c7c3b925846040518082815260200191505060405180910390a36001905092915050565b60075481565b6000610abe82600560003373ffffffffffffffffffffffffffffffffffffffff1673ffffffffffffffffffffffffffffffffffffffff16815260200190815260200160002054611b4d90919063ffffffff16565b600560003373ffffffffffffffffffffffffffffffffffffffff1673ffffffffffffffffffffffffffffffffffffffff16815260200190815260200160002081905550610b5382600560008673ffffffffffffffffffffffffffffffffffffffff1673ffffffffffffffffffffffffffffffffffffffff16815260200190815260200160002054611bd690919063ffffffff16565b600560008573ffffffffffffffffffffffffffffffffffffffff1673ffffffffffffffffffffffffffffffffffffffff168152602001908152602001600020819055508273ffffffffffffffffffffffffffffffffffffffff163373ffffffffffffffffffffffffffffffffffffffff167fddf252ad1be2c89b69c2b068fc378daa952ba7f163c4a11628f55a4df523b3ef846040518082815260200191505060405180910390a36000610c8c83600660008873ffffffffffffffffffffffffffffffffffffffff1673ffffffffffffffffffffffffffffffffffffffff16815260200190815260200160002060003373ffffffffffffffffffffffffffffffffffffffff1673ffffffffffffffffffffffffffffffffffffffff16815260200190815260200160002054611b4d90919063ffffffff16565b905080600660008773ffffffffffffffffffffffffffffffffffffffff1673ffffffffffffffffffffffffffffffffffffffff16815260200190815260200160002060003373ffffffffffffffffffffffffffffffffffffffff1673ffffffffffffffffffffffffffffffffffffffff168152602001908152602001600020819055503373ffffffffffffffffffffffffffffffffffffffff168573ffffffffffffffffffffffffffffffffffffffff167f8c5be1e5ebec7d5bd14f71427d1e84f3dd0314c0f7b2291e5b200ac8c7c3b925836040518082815260200191505060405180910390a360019150509392505050565b6000600354421015610dfa576040517f08c379a000000000000000000000000000000000000000000000000000000000815260040180806020018281038252601b8152602001807f5853323a204f7074696f6e206e6f74207965742065787069726564000000000081525060200191505060405180910390fd5b610e4c82600a60003373ffffffffffffffffffffffffffffffffffffffff1673ffffffffffffffffffffffffffffffffffffffff16815260200190815260200160002054611b4d90919063ffffffff16565b600a60003373ffffffffffffffffffffffffffffffffffffffff1673ffffffffffffffffffffffffffffffffffffffff168152602001908152602001600020819055506000600b549050610eab83600b54611b4d90919063ffffffff16565b600b819055506000610eda82610ecc86600d54611c5e90919063ffffffff16565b611d0190919063ffffffff16565b90506000811115610f1357610f12600960009054906101000a900473ffffffffffffffffffffffffffffffffffffffff163383611d90565b5b6000610f3c83610f2e87600c54611c5e90919063ffffffff16565b611d0190919063ffffffff16565b90506000811115610f7557610f74600860019054906101000a900473ffffffffffffffffffffffffffffffffffffffff163383611d90565b5b3373ffffffffffffffffffffffffffffffffffffffff167f884edad9ce6fa2440d8a54cc123490eb96d2768479d49ff9c7366125a9424364866040518082815260200191505060405180910390a260019350505050919050565b600460009054906101000a900460ff1681565b600860019054906101000a900473ffffffffffffffffffffffffffffffffffffffff1681565b60056020528060005260406000206000915090505481565b600860009054906101000a900460ff16156110a3576040517f08c379a00000000000000000000000000000000000000000000000000000000081526004018080602001828103825260138152602001807f416c726561647920696e697469616c697a65640000000000000000000000000081525060200191505060405180910390fd5b85600090805190602001906110b99291906121e4565b5084600190805190602001906110d09291906121e4565b5083600860016101000a81548173ffffffffffffffffffffffffffffffffffffffff021916908373ffffffffffffffffffffffffffffffffffffffff16021790555082600960006101000a81548173ffffffffffffffffffffffffffffffffffffffff021916908373ffffffffffffffffffffffffffffffffffffffff16021790555081600281905550806003819055506001600860006101000a81548160ff021916908315150217905550505050505050565b60018054600181600116156101000203166002900480601f01602080910402602001604051908101604052809291908181526020018280546001816001161561010002031660029004801561121a5780601f106111ef5761010080835404028352916020019161121a565b820191906000526020600020905b8154815290600101906020018083116111fd57829003601f168201915b505050505081565b60025481565b600060035442106112a1576040517f08c379a00000000000000000000000000000000000000000000000000000000081526004018080602001828103825260138152602001807f5853323a204f7074696f6e20657870697265640000000000000000000000000081525060200191505060405180910390fd5b6000600c54146112fc576040517f08c379a000000000000000000000000000000000000000000000000000000000815260040180806020018281038252602d815260200180612282602d913960400191505060405180910390fd5b61131182600d54611bd690919063ffffffff16565b600d8190555061132c82600754611bd690919063ffffffff16565b60078190555061138482600560003373ffffffffffffffffffffffffffffffffffffffff1673ffffffffffffffffffffffffffffffffffffffff16815260200190815260200160002054611bd690919063ffffffff16565b600560003373ffffffffffffffffffffffffffffffffffffffff1673ffffffffffffffffffffffffffffffffffffffff168152602001908152602001600020819055506113dc82600b54611bd690919063ffffffff16565b600b8190555061143482600a60003373ffffffffffffffffffffffffffffffffffffffff1673ffffffffffffffffffffffffffffffffffffffff16815260200190815260200160002054611bd690919063ffffffff16565b600a60003373ffffffffffffffffffffffffffffffffffffffff1673ffffffffffffffffffffffffffffffffffffffff168152602001908152602001600020819055506114a4600960009054906101000a900473ffffffffffffffffffffffffffffffffffffffff163384611fab565b3373ffffffffffffffffffffffffffffffffffffffff167f0f6798a560793a54c3bcfe86a93cde1e73087d944c0ea20544137d4121396885836040518082815260200191505060405180910390a23373ffffffffffffffffffffffffffffffffffffffff16600073ffffffffffffffffffffffffffffffffffffffff167fddf252ad1be2c89b69c2b068fc378daa952ba7f163c4a11628f55a4df523b3ef846040518082815260200191505060405180910390a360019050919050565b60006115b582600560003373ffffffffffffffffffffffffffffffffffffffff1673ffffffffffffffffffffffffffffffffffffffff16815260200190815260200160002054611b4d90919063ffffffff16565b600560003373ffffffffffffffffffffffffffffffffffffffff1673ffffffffffffffffffffffffffffffffffffffff1681526020019081526020016000208190555061164a82600560008673ffffffffffffffffffffffffffffffffffffffff1673ffffffffffffffffffffffffffffffffffffffff16815260200190815260200160002054611bd690919063ffffffff16565b600560008573ffffffffffffffffffffffffffffffffffffffff1673ffffffffffffffffffffffffffffffffffffffff168152602001908152602001600020819055508273ffffffffffffffffffffffffffffffffffffffff163373ffffffffffffffffffffffffffffffffffffffff167fddf252ad1be2c89b69c2b068fc378daa952ba7f163c4a11628f55a4df523b3ef846040518082815260200191505060405180910390a36001905092915050565b60006003544210611775576040517f08c379a00000000000000000000000000000000000000000000000000000000081526004018080602001828103825260178152602001807f5853323a204f7074696f6e20686173206578706972656400000000000000000081525060200191505060405180910390fd5b6117c782600560003373ffffffffffffffffffffffffffffffffffffffff1673ffffffffffffffffffffffffffffffffffffffff16815260200190815260200160002054611b4d90919063ffffffff16565b600560003373ffffffffffffffffffffffffffffffffffffffff1673ffffffffffffffffffffffffffffffffffffffff1681526020019081526020016000208190555061181f82600754611b4d90919063ffffffff16565b6007819055506000611856600254611848670de0b6b3a764000086611c5e90919063ffffffff16565b611d0190919063ffffffff16565b905061186d81600c54611bd690919063ffffffff16565b600c8190555061188883600d54611b4d90919063ffffffff16565b600d819055506118bb600860019054906101000a900473ffffffffffffffffffffffffffffffffffffffff163383611fab565b6118e8600960009054906101000a900473ffffffffffffffffffffffffffffffffffffffff163385611d90565b3373ffffffffffffffffffffffffffffffffffffffff167f5a20425ee28c08dfaf53c051ce9fb1fdfedad2949379924d3313a74c2c61a2a5846040518082815260200191505060405180910390a2600073ffffffffffffffffffffffffffffffffffffffff163373ffffffffffffffffffffffffffffffffffffffff167fddf252ad1be2c89b69c2b068fc378daa952ba7f163c4a11628f55a4df523b3ef856040518082815260200191505060405180910390a36001915050919050565b6006602052816000526040600020602052806000526040600020600091509150505481565b60035481565b600960009054906101000a900473ffffffffffffffffffffffffffffffffffffffff1681565b6000600860019054906101000a900473ffffffffffffffffffffffffffffffffffffffff1673ffffffffffffffffffffffffffffffffffffffff168373ffffffffffffffffffffffffffffffffffffffff1614158015611aa55750600960009054906101000a900473ffffffffffffffffffffffffffffffffffffffff1673ffffffffffffffffffffffffffffffffffffffff168373ffffffffffffffffffffffffffffffffffffffff1614155b611afa576040517f08c379a00000000000000000000000000000000000000000000000000000000081526004018080602001828103825260238152602001806122af6023913960400191505060405180910390fd5b611b1983739e6e344f94305d36ea59912b0911fe2c9149ed3e84611d90565b6001905092915050565b600d5481565b600a6020528060005260406000206000915090505481565b600b5481565b600c5481565b600082821115611bc5576040517f08c379a000000000000000000000000000000000000000000000000000000000815260040180806020018281038252600e8152602001807f5853323a20556e646572666c6f7700000000000000000000000000000000000081525060200191505060405180910390fd5b600082840390508091505092915050565b600080828401905083811015611c54576040517f08c379a000000000000000000000000000000000000000000000000000000000815260040180806020018281038252600d8152602001807f5853323a204f766572666c6f770000000000000000000000000000000000000081525060200191505060405180910390fd5b8091505092915050565b600080831415611c715760009050611cfb565b6000828402905082848281611c8257fe5b0414611cf6576040517f08c379a000000000000000000000000000000000000000000000000000000000815260040180806020018281038252600d8152602001807f5853323a204f766572666c6f770000000000000000000000000000000000000081525060200191505060405180910390fd5b809150505b92915050565b6000808211611d78576040517f08c379a000000000000000000000000000000000000000000000000000000000815260040180806020018281038252600d8152602001807f5853323a2044697620627920300000000000000000000000000000000000000081525060200191505060405180910390fd5b6000828481611d8357fe5b0490508091505092915050565b600060608473ffffffffffffffffffffffffffffffffffffffff167fa9059cbb2ab09eb219583f4a59a5d0623ade346d962bcd4e46b11da047c9049b8585604051602401808373ffffffffffffffffffffffffffffffffffffffff16815260200182815260200192505050604051602081830303815290604052907bffffffffffffffffffffffffffffffffffffffffffffffffffffffff19166020820180517bffffffffffffffffffffffffffffffffffffffffffffffffffffffff83818316178352505050506040518082805190602001908083835b60208310611e8b5780518252602082019150602081019050602083039250611e68565b6001836020036101000a0380198251168184511680821785525050505050509050019150506000604051808303816000865af19150503d8060008114611eed576040519150601f19603f3d011682016040523d82523d6000602084013e611ef2565b606091505b5091509150818015611f325750600081511480611f315750808060200190516020811015611f1f57600080fd5b81019080805190602001909291905050505b5b611fa4576040517f08c379a00000000000000000000000000000000000000000000000000000000081526004018080602001828103825260148152602001807f5853323a205452414e534645525f4641494c454400000000000000000000000081525060200191505060405180910390fd5b5050505050565b600060608473ffffffffffffffffffffffffffffffffffffffff167f23b872dd7302113369cda2901243429419bec145408fa8b352b3dd92b66c680b853086604051602401808473ffffffffffffffffffffffffffffffffffffffff1681526020018373ffffffffffffffffffffffffffffffffffffffff1681526020018281526020019350505050604051602081830303815290604052907bffffffffffffffffffffffffffffffffffffffffffffffffffffffff19166020820180517bffffffffffffffffffffffffffffffffffffffffffffffffffffffff83818316178352505050506040518082805190602001908083835b602083106120c457805182526020820191506020810190506020830392506120a1565b6001836020036101000a0380198251168184511680821785525050505050509050019150506000604051808303816000865af19150503d8060008114612126576040519150601f19603f3d011682016040523d82523d6000602084013e61212b565b606091505b509150915081801561216b575060008151148061216a575080806020019051602081101561215857600080fd5b81019080805190602001909291905050505b5b6121dd576040517f08c379a00000000000000000000000000000000000000000000000000000000081526004018080602001828103825260148152602001807f5853323a205452414e534645525f4641494c454400000000000000000000000081525060200191505060405180910390fd5b5050505050565b828054600181600116156101000203166002900490600052602060002090601f016020900481019282601f1061222557805160ff1916838001178555612253565b82800160010185558215612253579182015b82811115612252578251825591602001919060010190612237565b5b5090506122609190612264565b5090565b5b8082111561227d576000816000905550600101612265565b509056fe5853323a20536f6d65206f7074696f6e73206578657263697365642c206d696e74696e672064697361626c65645853323a2043616e6e6f7420736c757270206173736574206f722063757272656e6379a2646970667358221220addaa84356abfa88bf40edf471731fd8dab1b700c9e0a521ddbf6015c689c1e664736f6c63430007000033",
  "immutableReferences": {},
  "source": "pragma solidity ^0.7.0;\r\n\r\n// BEWARE! THIS CONTRACT IS FOR TESTING ONLY! THIS IS STILL FULL OF SECURITY ISSUES AND BUGS!\r\n\r\n// SPDX-License-Identifier: MIT\r\n\r\n// DONE:\r\n// Security: Evaluate any opportunity for reentrancy bugs\r\n// Security: Figure out the safest way to call ERC20 transferFrom functions\r\n// Testing: Setup\r\n\r\n// TODO:\r\n// Setup github\r\n// Gas: Reduce where safe\r\n// Docs: Document every line in the contract\r\n// Check: What if currency rebases\r\n// Check: What if asset rebases\r\n// Check: Get extreme decimal examples, does exercise work ok?\r\n\r\n// Features for more complex versions:\r\n// - Wipe balances after expiry?\r\n// - Allow burning before expiry\r\n// - Also create tokens for the issuer\r\n// - Support rebasing tokens\r\n// - Support tokens than give rewards in other tokens\r\n// - Support staking of pooled assets\r\n\r\n// price: this is the price of 10^18 base units of asset (ignoring decimals) as expressed in base units of currency (also ignoring decimals)\r\n\r\n// The frontend is responsible for making the simple calculation so the code can stay decimal agnostic and simple\r\n// For example, the price of 1 CVC (has 8 decimals) in the currency DAI (18 decimals):\r\n// 1 CVC = 0.0365 DAI\r\n// 1 * 8^10 base units of CVC = 0.0365 DAI (CVC has 8 decimals)\r\n// 1 * 8^10 base units of CVC = 0.0365 * 10^18 base units of DAI (DAI has 18 decimals)\r\n// 1 * 18^10 base units of CVC = 0.0365 * 10^28 base units of DAI (Multiply by 10^10 in this case to get to 10^18 base units)\r\n// Price = 0.0365 * 10^28 = 365000000000000000000000000\r\n\r\n// Design decisions and rationale\r\n\r\n// Use of block.timestamp\r\n// While blocknumber is more 'exact', block.timestamp is easier to understand for users and more predictable\r\n// So while it can be slightly manipulated by miners, this is not an issue on the timescales options operate at\r\n\r\n// safeTransfer and safeTransferFrom\r\n// These are based on the way this is done in Uniswap V2, which interacts with a wide variety of non-compliant tokens\r\n// Compound uses a diffent way that includes inline assembly, but effectively they do the same thing\r\n\r\nlibrary SafeMath {\r\n    function add(uint256 a, uint256 b) internal pure returns (uint256) {\r\n        uint256 c = a + b;\r\n        require(c >= a, \"XS2: Overflow\");\r\n        return c;\r\n    }\r\n\r\n    function sub(uint256 a, uint256 b) internal pure returns (uint256) {\r\n        require(b <= a, \"XS2: Underflow\");\r\n        uint256 c = a - b;\r\n        return c;\r\n    }\r\n\r\n    function mul(uint256 a, uint256 b) internal pure returns (uint256) {\r\n        if (a == 0) {\r\n            return 0;\r\n        }\r\n        uint256 c = a * b;\r\n        require(c / a == b, \"XS2: Overflow\");\r\n        return c;\r\n    }\r\n\r\n    function div(uint256 a, uint256 b) internal pure returns (uint256) {\r\n        require(b > 0, \"XS2: Div by 0\");\r\n        uint256 c = a / b;\r\n        return c;\r\n    }\r\n}\r\n\r\ncontract XS2Option {\r\n    using SafeMath for uint256;\r\n\r\n    string public name;\r\n    string public symbol;\r\n\r\n    uint256 public price;\r\n    uint256 public expiry;\r\n    uint8 public decimals = 18;\r\n\r\n    mapping(address => uint256) public balanceOf;\r\n    mapping(address => mapping(address => uint256)) public allowance;\r\n    uint256 public totalSupply;\r\n\r\n    event Transfer(address indexed from, address indexed to, uint256 value);\r\n    event Approval(\r\n        address indexed owner,\r\n        address indexed spender,\r\n        uint256 value\r\n    );\r\n\r\n    bool initialized;\r\n\r\n    function initialize(\r\n        string memory name_,\r\n        string memory symbol_,\r\n        address asset_,\r\n        address currency_,\r\n        uint256 price_,\r\n        uint256 expiry_\r\n    ) public {\r\n        require(!initialized, \"Already initialized\");\r\n        name = name_;\r\n        symbol = symbol_;\r\n        asset = asset_;\r\n        currency = currency_;\r\n        price = price_;\r\n        expiry = expiry_;\r\n\r\n        initialized = true;\r\n    }\r\n\r\n    function transfer(address recipient, uint256 amount) public returns (bool) {\r\n        balanceOf[msg.sender] = balanceOf[msg.sender].sub(amount);\r\n        balanceOf[recipient] = balanceOf[recipient].add(amount);\r\n        emit Transfer(msg.sender, recipient, amount);\r\n\r\n        return true;\r\n    }\r\n\r\n    function approve(address spender, uint256 amount) public returns (bool) {\r\n        allowance[msg.sender][spender] = amount;\r\n        emit Approval(msg.sender, spender, amount);\r\n\r\n        return true;\r\n    }\r\n\r\n    function transferFrom(\r\n        address sender,\r\n        address recipient,\r\n        uint256 amount\r\n    ) public returns (bool) {\r\n        balanceOf[msg.sender] = balanceOf[msg.sender].sub(amount);\r\n        balanceOf[recipient] = balanceOf[recipient].add(amount);\r\n        emit Transfer(msg.sender, recipient, amount);\r\n\r\n        uint256 approval_amount = allowance[sender][msg.sender].sub(amount);\r\n        allowance[sender][msg.sender] = approval_amount;\r\n        emit Approval(sender, msg.sender, approval_amount);\r\n\r\n        return true;\r\n    }\r\n\r\n    /**\r\n     * @dev Internal function that calls 'transfer' on an ERC20 token.\r\n     * @param token The contract address of the ERC20 token.\r\n     * @param to The address to transfer the tokens to.\r\n     * @param value The amount to transfer.\r\n     */\r\n    function _safeTransfer(\r\n        address token,\r\n        address to,\r\n        uint256 value\r\n    ) private {\r\n        // solium-disable-next-line security/no-low-level-calls\r\n        (bool success, bytes memory data) = token.call(\r\n            abi.encodeWithSelector(\r\n                bytes4(keccak256(\"transfer(address,uint256)\")),\r\n                to,\r\n                value\r\n            )\r\n        );\r\n        require(\r\n            success && (data.length == 0 || abi.decode(data, (bool))),\r\n            \"XS2: TRANSFER_FAILED\"\r\n        );\r\n    }\r\n\r\n    /**\r\n     * @dev Internal function that calls 'transferFrom' on an ERC20 token and transfer to this contract.\r\n     * @param token The contract address of the ERC20 token.\r\n     * @param from The address to transfer the tokens from.\r\n     * @param value The amount to transfer.\r\n     */\r\n    function _safeTransferFrom(\r\n        address token,\r\n        address from,\r\n        uint256 value\r\n    ) private {\r\n        // solium-disable-next-line security/no-low-level-calls\r\n        (bool success, bytes memory data) = token.call(\r\n            abi.encodeWithSelector(\r\n                bytes4(keccak256(\"transferFrom(address,address,uint256)\")),\r\n                from,\r\n                address(this),\r\n                value\r\n            )\r\n        );\r\n        require(\r\n            success && (data.length == 0 || abi.decode(data, (bool))),\r\n            \"XS2: TRANSFER_FAILED\"\r\n        );\r\n    }\r\n\r\n    // Variables specific to options\r\n    address public asset;\r\n    address public currency;\r\n\r\n    mapping(address => uint256) public issued;\r\n    uint256 public totalIssued;\r\n    uint256 public totalAsset;\r\n    uint256 public totalCurrency;\r\n\r\n    event Mint(address indexed to, uint256 amount);\r\n    event Withdraw(address indexed from, uint256 amount);\r\n    event Exercise(address indexed from, uint256 amount);\r\n\r\n    /**\r\n     * @dev Mint options.\r\n     * @param amount The amount to mint expressed in units of currency.\r\n     */\r\n    function mint(uint256 amount) public returns (bool) {\r\n        // CHECKS\r\n        // Check: Options are not yet expired (this isn't needed, but a nice to have)\r\n        // solium-disable-next-line security/no-block-members\r\n        require(block.timestamp < expiry, \"XS2: Option expired\");\r\n\r\n        // Once any options have been exercised, no more options can be minted\r\n        require(\r\n            totalAsset == 0,\r\n            \"XS2: Some options exercised, minting disabled\"\r\n        );\r\n\r\n        // EFFECTS\r\n        // Step 1. Receive amount base units of currency. This is held in the contract to be paid when the option is exercised.\r\n        totalCurrency = totalCurrency.add(amount);\r\n\r\n        // Step 2. Mint option tokens\r\n        totalSupply = totalSupply.add(amount);\r\n        balanceOf[msg.sender] = balanceOf[msg.sender].add(amount);\r\n\r\n        // Step 3. Increase the issued balance\r\n        totalIssued = totalIssued.add(amount);\r\n        issued[msg.sender] = issued[msg.sender].add(amount);\r\n\r\n        // INTERACTIONS\r\n        // Step 1. Receive amount base units of currency. This is held in the contract to be paid when the option is exercised.\r\n        _safeTransferFrom(currency, msg.sender, amount);\r\n\r\n        // EVENTS\r\n        emit Mint(msg.sender, amount);\r\n        emit Transfer(address(0), msg.sender, amount);\r\n\r\n        return true;\r\n    }\r\n\r\n    /**\r\n     * @dev Withdraw from the pool. Asset and currency are withdrawn to the proportion in which they are exercised.\r\n     * @param amount The amount to withdraw expressed in units of the option.\r\n     */\r\n    function withdraw(uint256 amount) public returns (bool) {\r\n        // CHECKS\r\n        // Check: Options are expired\r\n        // solium-disable-next-line security/no-block-members\r\n        require(block.timestamp >= expiry, \"XS2: Option not yet expired\");\r\n\r\n        // EFFECTS\r\n        // Step 1. Give up your issued balance\r\n        issued[msg.sender] = issued[msg.sender].sub(amount);\r\n        uint256 totalIssuedPre = totalIssued;\r\n        totalIssued = totalIssued.sub(amount);\r\n\r\n        // INTERACTIONS\r\n        // Step 2. Receive your share of the currency pool\r\n        uint256 currency_amount = (totalCurrency.mul(amount)).div(\r\n            totalIssuedPre\r\n        );\r\n        if (currency_amount > 0) {\r\n            _safeTransfer(currency, msg.sender, currency_amount);\r\n        }\r\n\r\n        // Step 3. Receive your share of the asset pool\r\n        uint256 asset_amount = (totalAsset.mul(amount)).div(totalIssuedPre);\r\n        if (asset_amount > 0) {\r\n            _safeTransfer(asset, msg.sender, asset_amount);\r\n        }\r\n\r\n        // EVENTS\r\n        emit Withdraw(msg.sender, amount);\r\n\r\n        return true;\r\n    }\r\n\r\n    /**\r\n     * @dev Exercise options.\r\n     * @param amount The amount to exercise expressed in units of currency.\r\n     */\r\n    function exercise(uint256 amount) public returns (bool) {\r\n        // CHECKS\r\n        // Check: Options are not yet expired\r\n        // solium-disable-next-line security/no-block-members\r\n        require(block.timestamp < expiry, \"XS2: Option has expired\");\r\n\r\n        // EFFECTS\r\n        // Step 1. Give up your option tokens\r\n        balanceOf[msg.sender] = balanceOf[msg.sender].sub(amount);\r\n        totalSupply = totalSupply.sub(amount);\r\n\r\n        // Step 2. Transfer your assets into the contract\r\n        uint256 asset_amount = (amount.mul(1e18)).div(price);\r\n        totalAsset = totalAsset.add(asset_amount);\r\n\r\n        // Step 3. Receive currency from the contract\r\n        totalCurrency = totalCurrency.sub(amount);\r\n\r\n        // INTERACTIONS\r\n        // Step 2. Transfer your assets into the contract\r\n        _safeTransferFrom(asset, msg.sender, asset_amount);\r\n\r\n        // Step 3. Receive currency from the contract\r\n        _safeTransfer(currency, msg.sender, amount);\r\n\r\n        // EVENTS\r\n        emit Exercise(msg.sender, amount);\r\n        emit Transfer(msg.sender, address(0), amount);\r\n\r\n        return true;\r\n    }\r\n\r\n    // Admin function to withdraw any random token deposits. Destination is hardcoded.\r\n    // Didn't want to add an owner to the contract. No need for extra complexity.\r\n    function slurp(address token_address, uint256 amount)\r\n        public\r\n        returns (bool)\r\n    {\r\n        // CHECKS\r\n        require(\r\n            token_address != asset && token_address != currency,\r\n            \"XS2: Cannot slurp asset or currency\"\r\n        );\r\n\r\n        // INTERACTIONS\r\n        _safeTransfer(\r\n            token_address,\r\n            0x9e6e344f94305d36eA59912b0911fE2c9149Ed3E,\r\n            amount\r\n        );\r\n\r\n        return true;\r\n    }\r\n}\r\n",
  "sourcePath": "C:/Users/Bart/Dropbox/Code/XS2DeFi/Code/contracts/XS2Option.sol",
  "compiler": {
    "name": "solc",
    "version": "0.7.0+commit.9e61f92b.Emscripten.clang"
  },
  "schemaVersion": "3.2.3",
  "updatedAt": "2020-08-24T16:15:42.805Z",
  "devdoc": {
    "kind": "dev",
    "methods": {
      "exercise(uint256)": {
        "details": "Exercise options.",
        "params": {
          "amount": "The amount to exercise expressed in units of currency."
        }
      },
      "mint(uint256)": {
        "details": "Mint options.",
        "params": {
          "amount": "The amount to mint expressed in units of currency."
        }
      },
      "withdraw(uint256)": {
        "details": "Withdraw from the pool. Asset and currency are withdrawn to the proportion in which they are exercised.",
        "params": {
          "amount": "The amount to withdraw expressed in units of the option."
        }
      }
    },
    "version": 1
  },
  "userdoc": {
    "kind": "user",
    "methods": {},
    "version": 1
  }
}